:020000040000FA
:100000000C9462000C948A000C948A000C948A0070
:100010000C948A000C948A000C948A000C948A0038
:100020000C948A000C948A000C948A000C948A0028
:100030000C948A000C948A000C948A000C948A0018
:100040000C94C4020C948A000C9434030C940E0398
:100050000C948A000C948A000C948A000C948A00F8
:100060000C948A000C948A000000000024002700F1
:100070002A0000000000250028002B0000000000DE
:1000800023002600290004040404040404040202DA
:100090000202020203030303030301020408102007
:1000A0004080010204081020010204081020000012
:1000B0000008000201000003040700000000000027
:1000C0000000C60411241FBECFEFD8E0DEBFCDBFB5
:1000D00011E0A0E0B1E0E6EFF9E002C005900D927A
:1000E000AC36B107D9F722E0ACE6B1E001C01D9211
:1000F000A631B207E1F710E0C2E6D0E004C02197D4
:10010000FE010E94F304C136D107C9F70E946603BD
:100110000C94F9040C940000833081F028F48130B1
:1001200099F08230A9F008958730A9F08830C9F09D
:100130008430B1F4809180008F7D03C08091800075
:100140008F7780938000089584B58F7784BD08955C
:1001500084B58F7DFBCF8091B0008F778093B00006
:1001600008958091B0008F7DF9CFCF93DF93282F32
:1001700030E0F901E255FF4F8491F901E656FF4F57
:10018000D491F901EA57FF4FC491CC23A1F081111A
:100190000E948C00EC2FF0E0EE0FFF1FE458FF4FA1
:1001A000A591B491EC91ED2381E090E009F480E019
:1001B000DF91CF91089580E090E0FACF1F93CF9325
:1001C000DF93282F30E0F901E255FF4F8491F901C8
:1001D000E656FF4FD491F901EA57FF4FC491CC2363
:1001E000A9F0162F81110E948C00EC2FF0E0EE0F89
:1001F000FF1FEE58FF4FA591B4918FB7F894EC9183
:10020000111108C0D095DE23DC938FBFDF91CF9111
:100210001F910895DE2BF8CFCF93DF9390E0FC0180
:10022000E656FF4F24918A579F4FFC018491882303
:10023000D1F090E0880F991FFC01E859FF4FA5917C
:10024000B491FC01EE58FF4FC591D49161110EC0DD
:100250009FB7F8948C91E22FE0958E238C932881A0
:10026000E223E8839FBFDF91CF9108958FB7F89481
:10027000EC91E22BEC938FBFF6CF1F93CF93DF93DC
:10028000182FEB0161E00E940C01209739F460E027
:10029000812FDF91CF911F910C94DE00CF3FD105CC
:1002A00011F461E0F5CFE12FF0E0E255FF4FE4916A
:1002B000E33031F140F4E130B1F0E230E1F0C03848
:1002C000D1057CF7E4CFE73029F1E83059F1E4308B
:1002D000B1F780918000806280938000D0938B0082
:1002E000C0938A0004C084B5806884BDC7BDDF9117
:1002F000CF911F91089584B5806284BDC8BDF7CFAA
:1003000080918000806880938000D0938900C093A2
:100310008800EDCF8091B00080688093B000C093DA
:10032000B300E5CF8091B00080628093B000C093AD
:10033000B400DDCFAF92BF92CF92DF92EF92FF92E7
:100340000F931F93CF93DF936C017B018B01040FFD
:10035000151FEB015E01AE18BF08C017D10759F099
:100360006991D601ED91FC910190F081E02DC601DB
:100370000995892B79F7C501DF91CF911F910F91D5
:10038000FF90EF90DF90CF90BF90AF900895FC0169
:10039000538D448D252F30E0842F90E0821B930BEA
:1003A000541710F0CF96089501970895FC01918D90
:1003B000828D981761F0A28DAE0FBF2FB11D5D9693
:1003C0008C91928D9F5F9F73928F90E008958FEF35
:1003D0009FEF0895FC01918D828D981731F0828DE9
:1003E000E80FF11D858D90E008958FEF9FEF089540
:1003F000FC01918D228D892F90E0805C9F4F821BA4
:1004000091098F739927089589E791E00E94F80177
:1004100021E0892B09F420E0822F089580E090E00C
:10042000892B29F00E94040281110C940000089588
:10043000FC01A48DA80FB92FB11DA35ABF4F2C9159
:10044000848D90E001968F739927848FA689B78950
:100450002C93A089B1898C91837080648C93938D47
:10046000848D981306C00288F389E02D80818F7DEA
:1004700080830895EF92FF920F931F93CF93DF93A2
:10048000EC0181E0888F9B8D8C8D98131AC0E889D0
:10049000F989808185FF15C09FB7F894EE89FF899F
:1004A0006083E889F98980818370806480839FBF3D
:1004B00081E090E0DF91CF911F910F91FF90EF903D
:1004C0000895F62E0B8D10E00F5F1F4F0F7311274D
:1004D000E02E8C8D8E110CC00FB607FCFACFE88988
:1004E000F989808185FFF5CFCE010E941802F1CFF6
:1004F000EB8DEC0FFD2FF11DE35AFF4FF0829FB7FC
:10050000F8940B8FEA89FB8980818062CFCFCF93EB
:10051000DF93EC01888D8823B9F0AA89BB89E8892B
:10052000F9898C9185FD03C0808186FD0DC00FB6D1
:1005300007FCF7CF8C9185FFF2CF808185FFEDCF4F
:10054000CE010E941802E9CFDF91CF910895CF9399
:10055000DF93FC0101900020E9F73197AF01481BC0
:10056000590BBC0189E791E00E949A01EC0142E03D
:1005700050E062E171E089E791E00E949A018C0FFE
:100580009D1FDF91CF9108951F920F920FB60F928A
:1005900011242F933F938F939F93AF93BF93809199
:1005A000750190917601A0917701B0917801309119
:1005B000740123E0230F2D3758F50196A11DB11DBD
:1005C000209374018093750190937601A093770135
:1005D000B09378018091700190917101A0917201A6
:1005E000B09173010196A11DB11D8093700190938C
:1005F0007101A0937201B0937301BF91AF919F916C
:100600008F913F912F910F900FBE0F901F901895D3
:1006100026E8230F0296A11DB11DD2CF1F920F9283
:100620000FB60F9211242F933F934F935F936F93C5
:100630007F938F939F93AF93BF93EF93FF9389E73C
:1006400091E00E941802FF91EF91BF91AF919F91AD
:100650008F917F916F915F914F913F912F910F906B
:100660000FBE0F901F9018951F920F920FB60F920A
:1006700011242F938F939F93EF93FF93E091890120
:10068000F0918A018081E0918F01F091900182FDCB
:100690001BC09081809192018F5F8F732091930195
:1006A000821741F0E0919201F0E0E758FE4F958FFC
:1006B00080939201FF91EF919F918F912F910F90D5
:1006C0000FBE0F901F9018958081F4CF789484B559
:1006D000826084BD84B5816084BD85B5826085BD3E
:1006E00085B5816085BD80916E00816080936E00CC
:1006F00010928100809181008260809381008091BE
:10070000810081608093810080918000816080936E
:1007100080008091B10084608093B1008091B0002E
:1007200081608093B00080917A00846080937A0029
:1007300080917A00826080937A0080917A00816053
:1007400080937A0080917A00806880937A0010927A
:10075000C10061E085E00E940C0161E083E00E943D
:100760000C0161E084E00E940C0161E086E00E94DF
:100770000C0161E082E00E940C0161E087E00E94D0
:100780000C0160E080916E010E940C0160E080919C
:100790006C010E940C01E0918901F0918A0182E0D4
:1007A0008083E0918501F09186011082E0918701BC
:1007B000F09188018FEC808310929101E0918D017E
:1007C000F0918E0186E08083E0918B01F0918C01A5
:1007D000808180618083E0918B01F0918C01808128
:1007E00088608083E0918B01F0918C01808180682A
:1007F0008083E0918B01F0918C0180818F7D8083DB
:1008000000E010E061E085E00E94DE0061E086E04B
:100810000E94DE0088E00E94B500EC0190936F0119
:1008200080936E018BE00E94B50090936D018093E0
:100830006C01C130D10569F58130910509F06AC0BC
:1008400060E083E00E94DE0060E084E00E94DE0061
:1008500060E082E00E94DE0060E087E00E94DE004F
:1008600070E060E085E00E943D0170E060E086E0BD
:100870000E943D0185E191E00E94A702011511054A
:1008800009F20E940402882309F4BCCF0E940000F0
:10089000B9CFCD2B09F05DC00097E9F461E083E0AA
:1008A0000E94DE0060E084E00E94DE0060E082E002
:1008B0000E94DE0061E087E00E94DE0068E770E0F1
:1008C00085E00E943D0168E770E086E00E943D01FE
:1008D00085E391E0D1CF0197E1F561E083E00E94EB
:1008E000DE0060E084E00E94DE0061E082E00E94C1
:1008F000DE0060E087E00E94DE006FEF70E085E0E0
:100900000E943D016FEF70E086E00E943D0186E5A8
:1009100091E0B2CF892BE9F460E083E00E94DE0031
:1009200061E084E00E94DE0060E082E00E94DE0080
:1009300061E087E00E94DE006FEF70E085E00E94DA
:100940003D016FEF70E086E00E943D0180E691E09E
:1009500093CF60E083E00E94DE0060E084E00E94CC
:10096000DE0060E082E00E94DE0060E087E00E943E
:10097000DE0070E060E085E00E943D0170E060E034
:1009800086E00E943D0180E391E076CFE9E7F1E067
:100990001382128288EE93E0A0E0B0E08483958316
:1009A000A683B78384E091E09183808385EC90E017
:1009B0009587848784EC90E09787868780EC90E029
:1009C000918B808B81EC90E0938B828B82EC90E01A
:1009D000958B848B86EC90E0978B868B118E128E94
:1009E000138E148E0895EE0FFF1F0590F491E02DE5
:1009F0000994F894FFCF000000003A029A01C70161
:100A00008702F801D601EA010D0A00426F746820DE
:100A10004952206973206F6E20626C61636B206C99
:100A2000696E65202D2073746F70004952206E6FBF
:100A300074206F6E20626C61636B206C696E652040
:100A40002D20676F20666F77617264004D6F766549
:100A5000206C656674004D6F7665207269676874F6
:020A6000000094
:107E0000112484B714BE81FFF0D085E080938100F7
:107E100082E08093C00088E18093C10086E0809377
:107E2000C20080E18093C4008EE0C9D0259A86E02C
:107E300020E33CEF91E0309385002093840096BBD3
:107E4000B09BFECF1D9AA8958150A9F7CC24DD24C4
:107E500088248394B5E0AB2EA1E19A2EF3E0BF2EE7
:107E6000A2D0813461F49FD0082FAFD0023811F036
:107E7000013811F484E001C083E08DD089C08234E0
:107E800011F484E103C0853419F485E0A6D080C0E4
:107E9000853579F488D0E82EFF2485D0082F10E0AE
:107EA000102F00270E291F29000F111F8ED06801E7
:107EB0006FC0863521F484E090D080E0DECF843638
:107EC00009F040C070D06FD0082F6DD080E0C81688
:107ED00080E7D80618F4F601B7BEE895C0E0D1E017
:107EE00062D089930C17E1F7F0E0CF16F0E7DF06D8
:107EF00018F0F601B7BEE89568D007B600FCFDCFD4
:107F0000A601A0E0B1E02C9130E011968C91119780
:107F100090E0982F8827822B932B1296FA010C0160
:107F200087BEE89511244E5F5F4FF1E0A038BF0790
:107F300051F7F601A7BEE89507B600FCFDCF97BE46
:107F4000E89526C08437B1F42ED02DD0F82E2BD052
:107F50003CD0F601EF2C8F010F5F1F4F84911BD097
:107F6000EA94F801C1F70894C11CD11CFA94CF0C13
:107F7000D11C0EC0853739F428D08EE10CD085E9AC
:107F80000AD08FE07ACF813511F488E018D01DD067
:107F900080E101D065CF982F8091C00085FFFCCF94
:107FA0009093C60008958091C00087FFFCCF809118
:107FB000C00084FD01C0A8958091C6000895E0E648
:107FC000F0E098E1908380830895EDDF803219F02E
:107FD00088E0F5DFFFCF84E1DECF1F93182FE3DFCA
:107FE0001150E9F7F2DF1F91089580E0E8DFEE27F6
:047FF000FF270994CA
:027FFE00040479
:00000001FF
